{
  "transactions": [
    {
      "hash": "0x1d51d42d435f9200a6c34f1db8dc6de048b23d06921b5b29aa0650085c2a6192",
      "transactionType": "CALL",
      "contractName": null,
      "contractAddress": "0xb046a6cde2990b9ddc7f13b311b5731da722ca2b",
      "function": "approve(address,uint256)",
      "arguments": [
        "0x5B4A641Fd1C2E67205d9d4947bcBD63EEDddD5Ab",
        "115792089237316195423570985008687907853269984665640564039457584007913129639935"
      ],
      "transaction": {
        "from": "0x0986bfd653985c9fa60a464784264444b542bfd7",
        "to": "0xb046a6cde2990b9ddc7f13b311b5731da722ca2b",
        "gas": "0x9e72",
        "value": "0x0",
        "input": "0x095ea7b30000000000000000000000005b4a641fd1c2e67205d9d4947bcbd63eedddd5abffffffffffffffffffffffffffffffffffffffffffffffffffffffffffffffff",
        "nonce": "0x24",
        "chainId": "0x7bb"
      },
      "additionalContracts": [],
      "isFixedGasLimit": false
    },
    {
      "hash": "0xfeb6b3879fbc169e570135c181918c899a70aa8ac41a12bd799392e352b71c23",
      "transactionType": "CALL",
      "contractName": null,
      "contractAddress": "0x093090b4eb9e82fb92fb4a80af0517b322799548",
      "function": "approve(address,uint256)",
      "arguments": [
        "0x5B4A641Fd1C2E67205d9d4947bcBD63EEDddD5Ab",
        "115792089237316195423570985008687907853269984665640564039457584007913129639935"
      ],
      "transaction": {
        "from": "0x0986bfd653985c9fa60a464784264444b542bfd7",
        "to": "0x093090b4eb9e82fb92fb4a80af0517b322799548",
        "gas": "0x9e72",
        "value": "0x0",
        "input": "0x095ea7b30000000000000000000000005b4a641fd1c2e67205d9d4947bcbd63eedddd5abffffffffffffffffffffffffffffffffffffffffffffffffffffffffffffffff",
        "nonce": "0x25",
        "chainId": "0x7bb"
      },
      "additionalContracts": [],
      "isFixedGasLimit": false
    },
    {
      "hash": "0xf2c7d0d2b2c77036fb85aa71420d6ca164791483b26f23920021f5123660825f",
      "transactionType": "CALL",
      "contractName": null,
      "contractAddress": "0x00bc5cc3c2d4c85f2ea362adb7a4ea261162f90b",
      "function": "approve(address,uint256)",
      "arguments": [
        "0x5B4A641Fd1C2E67205d9d4947bcBD63EEDddD5Ab",
        "115792089237316195423570985008687907853269984665640564039457584007913129639935"
      ],
      "transaction": {
        "from": "0x0986bfd653985c9fa60a464784264444b542bfd7",
        "to": "0x00bc5cc3c2d4c85f2ea362adb7a4ea261162f90b",
        "gas": "0x9e72",
        "value": "0x0",
        "input": "0x095ea7b30000000000000000000000005b4a641fd1c2e67205d9d4947bcbd63eedddd5abffffffffffffffffffffffffffffffffffffffffffffffffffffffffffffffff",
        "nonce": "0x26",
        "chainId": "0x7bb"
      },
      "additionalContracts": [],
      "isFixedGasLimit": false
    },
    {
      "hash": "0x99cfcb51c4ca84e4212ba482354595a56bad05cd6d415e225c861e9ee7a90a55",
      "transactionType": "CALL",
      "contractName": null,
      "contractAddress": "0x31107dbffd05918160e37e147a23e6b641319235",
      "function": "approve(address,uint256)",
      "arguments": [
        "0x5B4A641Fd1C2E67205d9d4947bcBD63EEDddD5Ab",
        "115792089237316195423570985008687907853269984665640564039457584007913129639935"
      ],
      "transaction": {
        "from": "0x0986bfd653985c9fa60a464784264444b542bfd7",
        "to": "0x31107dbffd05918160e37e147a23e6b641319235",
        "gas": "0x9e72",
        "value": "0x0",
        "input": "0x095ea7b30000000000000000000000005b4a641fd1c2e67205d9d4947bcbd63eedddd5abffffffffffffffffffffffffffffffffffffffffffffffffffffffffffffffff",
        "nonce": "0x27",
        "chainId": "0x7bb"
      },
      "additionalContracts": [],
      "isFixedGasLimit": false
    },
    {
      "hash": "0x13d006847ab0dde7b62deb830c7ef0e2f971d945bb99b11d21ea15530191b6a4",
      "transactionType": "CALL",
      "contractName": null,
      "contractAddress": "0x134594a2e3c2c3c550bd6981642b923b88ff6e9d",
      "function": "approve(address,uint256)",
      "arguments": [
        "0x5B4A641Fd1C2E67205d9d4947bcBD63EEDddD5Ab",
        "115792089237316195423570985008687907853269984665640564039457584007913129639935"
      ],
      "transaction": {
        "from": "0x0986bfd653985c9fa60a464784264444b542bfd7",
        "to": "0x134594a2e3c2c3c550bd6981642b923b88ff6e9d",
        "gas": "0x9e72",
        "value": "0x0",
        "input": "0x095ea7b30000000000000000000000005b4a641fd1c2e67205d9d4947bcbd63eedddd5abffffffffffffffffffffffffffffffffffffffffffffffffffffffffffffffff",
        "nonce": "0x28",
        "chainId": "0x7bb"
      },
      "additionalContracts": [],
      "isFixedGasLimit": false
    },
    {
      "hash": "0xc3fb68778df11e3490e2f18c5cbbd166780fe7594582b3ff23b17cf32b4e895b",
      "transactionType": "CALL",
      "contractName": null,
      "contractAddress": "0x5b4a641fd1c2e67205d9d4947bcbd63eedddd5ab",
      "function": "addLiquidity(address,uint256,uint256,uint256)",
      "arguments": [
        "0x093090B4eB9E82fb92fb4A80Af0517B322799548",
        "100000000000000000000000",
        "50000000000000000000",
        "0"
      ],
      "transaction": {
        "from": "0x0986bfd653985c9fa60a464784264444b542bfd7",
        "to": "0x5b4a641fd1c2e67205d9d4947bcbd63eedddd5ab",
        "gas": "0x202fe",
        "value": "0x0",
        "input": "0x1ece366a000000000000000000000000093090b4eb9e82fb92fb4a80af0517b32279954800000000000000000000000000000000000000000000152d02c7e14af6800000000000000000000000000000000000000000000000000002b5e3af16b18800000000000000000000000000000000000000000000000000000000000000000000",
        "nonce": "0x29",
        "chainId": "0x7bb"
      },
      "additionalContracts": [],
      "isFixedGasLimit": false
    },
    {
      "hash": "0x7688c8b0d86eb981b0067ee9d6151a1b68fec0237555e273d77ce4ebad046732",
      "transactionType": "CALL",
      "contractName": null,
      "contractAddress": "0x5b4a641fd1c2e67205d9d4947bcbd63eedddd5ab",
      "function": "addLiquidity(address,uint256,uint256,uint256)",
      "arguments": [
        "0x00BC5cc3C2d4c85f2eA362ADB7a4ea261162F90B",
        "100000000000000000000000",
        "50000000000000000000",
        "0"
      ],
      "transaction": {
        "from": "0x0986bfd653985c9fa60a464784264444b542bfd7",
        "to": "0x5b4a641fd1c2e67205d9d4947bcbd63eedddd5ab",
        "gas": "0x1e651",
        "value": "0x0",
        "input": "0x1ece366a00000000000000000000000000bc5cc3c2d4c85f2ea362adb7a4ea261162f90b00000000000000000000000000000000000000000000152d02c7e14af6800000000000000000000000000000000000000000000000000002b5e3af16b18800000000000000000000000000000000000000000000000000000000000000000000",
        "nonce": "0x2a",
        "chainId": "0x7bb"
      },
      "additionalContracts": [],
      "isFixedGasLimit": false
    },
    {
      "hash": "0xe5becec6e1d1bfc12133a67861e8eb4ed8ae9108b71295e991f57b34afeec440",
      "transactionType": "CALL",
      "contractName": null,
      "contractAddress": "0x5b4a641fd1c2e67205d9d4947bcbd63eedddd5ab",
      "function": "addLiquidity(address,uint256,uint256,uint256)",
      "arguments": [
        "0x31107dbFfD05918160e37E147a23E6B641319235",
        "100000000000000000000000",
        "100000",
        "0"
      ],
      "transaction": {
        "from": "0x0986bfd653985c9fa60a464784264444b542bfd7",
        "to": "0x5b4a641fd1c2e67205d9d4947bcbd63eedddd5ab",
        "gas": "0x202b8",
        "value": "0x0",
        "input": "0x1ece366a00000000000000000000000031107dbffd05918160e37e147a23e6b64131923500000000000000000000000000000000000000000000152d02c7e14af680000000000000000000000000000000000000000000000000000000000000000186a00000000000000000000000000000000000000000000000000000000000000000",
        "nonce": "0x2b",
        "chainId": "0x7bb"
      },
      "additionalContracts": [],
      "isFixedGasLimit": false
    },
    {
      "hash": "0xbf776231d40987f508adacc0c7f178556189afd48299cb3c8de8814a8f6c9e28",
      "transactionType": "CALL",
      "contractName": null,
      "contractAddress": "0x5b4a641fd1c2e67205d9d4947bcbd63eedddd5ab",
      "function": "addLiquidity(address,uint256,uint256,uint256)",
      "arguments": [
        "0x134594a2e3C2c3C550BD6981642B923b88ff6E9D",
        "100000000000000000000000",
        "100000",
        "0"
      ],
      "transaction": {
        "from": "0x0986bfd653985c9fa60a464784264444b542bfd7",
        "to": "0x5b4a641fd1c2e67205d9d4947bcbd63eedddd5ab",
        "gas": "0x202b8",
        "value": "0x0",
        "input": "0x1ece366a000000000000000000000000134594a2e3c2c3c550bd6981642b923b88ff6e9d00000000000000000000000000000000000000000000152d02c7e14af680000000000000000000000000000000000000000000000000000000000000000186a00000000000000000000000000000000000000000000000000000000000000000",
        "nonce": "0x2c",
        "chainId": "0x7bb"
      },
      "additionalContracts": [],
      "isFixedGasLimit": false
    },
    {
      "hash": "0x41b33befad3acd926886ed0b2969341583361d6e04fe9803e9200898b4ef8f97",
      "transactionType": "CALL",
      "contractName": null,
      "contractAddress": "0xb046a6cde2990b9ddc7f13b311b5731da722ca2b",
      "function": "transfer(address,uint256)",
      "arguments": [
        "0x620eBbf0F0d7acE2202Db95fd6ee0BB42F9510A6",
        "500000000000000000000000"
      ],
      "transaction": {
        "from": "0x0986bfd653985c9fa60a464784264444b542bfd7",
        "to": "0xb046a6cde2990b9ddc7f13b311b5731da722ca2b",
        "gas": "0xc536",
        "value": "0x0",
        "input": "0xa9059cbb000000000000000000000000620ebbf0f0d7ace2202db95fd6ee0bb42f9510a60000000000000000000000000000000000000000000069e10de76676d0800000",
        "nonce": "0x2d",
        "chainId": "0x7bb"
      },
      "additionalContracts": [],
      "isFixedGasLimit": false
    }
  ],
  "receipts": [
    {
      "type": "0x2",
      "status": "0x1",
      "cumulativeGasUsed": "0x72b7",
      "logs": [
        {
          "address": "0xb046a6cde2990b9ddc7f13b311b5731da722ca2b",
          "topics": [
            "0x8c5be1e5ebec7d5bd14f71427d1e84f3dd0314c0f7b2291e5b200ac8c7c3b925",
            "0x0000000000000000000000000986bfd653985c9fa60a464784264444b542bfd7",
            "0x0000000000000000000000005b4a641fd1c2e67205d9d4947bcbd63eedddd5ab"
          ],
          "data": "0xffffffffffffffffffffffffffffffffffffffffffffffffffffffffffffffff",
          "blockHash": "0x8efce6ce071215df2c07b1ab201d35cda04e7a3abe91284978f40a3b92bfa35c",
          "blockNumber": "0x1c28b8a",
          "blockTimestamp": "0x19ea198af4b",
          "transactionHash": "0x1d51d42d435f9200a6c34f1db8dc6de048b23d06921b5b29aa0650085c2a6192",
          "transactionIndex": "0x0",
          "logIndex": "0x0",
          "removed": false
        }
      ],
      "logsBloom": "0x00000000000000000000000000000000000000000000000000000000000200000000000000008000000000000000000000000000000000020000000000200000000400000000000000000000000000000000000000000000000000000000000000000000000000000000000000000000000000000000000000000000200000000000000000000000000000000000000020000000000000000000000000000000020000000000000000000000000000100000000000000000000000000008000000000000000000000000000000000000000000000000000000000000000000000010000000000000000000000010000000000000000000000000000000000000",
      "transactionHash": "0x1d51d42d435f9200a6c34f1db8dc6de048b23d06921b5b29aa0650085c2a6192",
      "transactionIndex": "0x0",
      "blockHash": "0x8efce6ce071215df2c07b1ab201d35cda04e7a3abe91284978f40a3b92bfa35c",
      "blockNumber": "0x1c28b8a",
      "gasUsed": "0x72b7",
      "effectiveGasPrice": "0x3b9aca07",
      "from": "0x0986bfd653985c9fa60a464784264444b542bfd7",
      "to": "0xb046a6cde2990b9ddc7f13b311b5731da722ca2b",
      "contractAddress": null
    },
    {
      "type": "0x2",
      "status": "0x1",
      "cumulativeGasUsed": "0x5159c",
      "logs": [
        {
          "address": "0x093090b4eb9e82fb92fb4a80af0517b322799548",
          "topics": [
            "0x8c5be1e5ebec7d5bd14f71427d1e84f3dd0314c0f7b2291e5b200ac8c7c3b925",
            "0x0000000000000000000000000986bfd653985c9fa60a464784264444b542bfd7",
            "0x0000000000000000000000005b4a641fd1c2e67205d9d4947bcbd63eedddd5ab"
          ],
          "data": "0xffffffffffffffffffffffffffffffffffffffffffffffffffffffffffffffff",
          "blockHash": "0x64772586127295854cb73d11ce83f5f2d79f3d4d4511c8f1a1a7646af5fc6657",
          "blockNumber": "0x1c28b91",
          "blockTimestamp": "0x19ea198b57b",
          "transactionHash": "0xfeb6b3879fbc169e570135c181918c899a70aa8ac41a12bd799392e352b71c23",
          "transactionIndex": "0x7",
          "logIndex": "0x11",
          "removed": false
        }
      ],
      "logsBloom": "0x00000000000000000000000000000000000000000001000000000000000200000000000000000000000000000000000000000000000000020000000040200000000400000000000000000000000000000000000000000004000000000000000000000000000000000000000000000000000000000000000000000000000000000000000000000000000000000000000020000000000000000000000000000000020000000000000000000000000000100000000000000000000000000000000000000000000000000000000000000000000000000000000000000000000000000010000000000000000000000010000000000000000000000000000000000000",
      "transactionHash": "0xfeb6b3879fbc169e570135c181918c899a70aa8ac41a12bd799392e352b71c23",
      "transactionIndex": "0x7",
      "blockHash": "0x64772586127295854cb73d11ce83f5f2d79f3d4d4511c8f1a1a7646af5fc6657",
      "blockNumber": "0x1c28b91",
      "gasUsed": "0x72b7",
      "effectiveGasPrice": "0x3b9aca07",
      "from": "0x0986bfd653985c9fa60a464784264444b542bfd7",
      "to": "0x093090b4eb9e82fb92fb4a80af0517b322799548",
      "contractAddress": null
    },
    {
      "type": "0x2",
      "status": "0x1",
      "cumulativeGasUsed": "0x72b7",
      "logs": [
        {
          "address": "0x00bc5cc3c2d4c85f2ea362adb7a4ea261162f90b",
          "topics": [
            "0x8c5be1e5ebec7d5bd14f71427d1e84f3dd0314c0f7b2291e5b200ac8c7c3b925",
            "0x0000000000000000000000000986bfd653985c9fa60a464784264444b542bfd7",
            "0x0000000000000000000000005b4a641fd1c2e67205d9d4947bcbd63eedddd5ab"
          ],
          "data": "0xffffffffffffffffffffffffffffffffffffffffffffffffffffffffffffffff",
          "blockHash": "0x226c36ed5a7b30142bc8a0379351f917ed524f68fa38176a3e5531a41c59d104",
          "blockNumber": "0x1c28b99",
          "blockTimestamp": "0x19ea198bc6c",
          "transactionHash": "0xf2c7d0d2b2c77036fb85aa71420d6ca164791483b26f23920021f5123660825f",
          "transactionIndex": "0x1",
          "logIndex": "0x1",
          "removed": false
        }
      ],
      "logsBloom": "0x00000000000000000000080000000000000000000000000000000000000200000000000000000000000000000000000000000000000000020000000000200000000400000000000000000000000000000000000000000000000000000000000000000000000000000000000000000000000000000000000000000000000000000000000000000000000000000000000020000000000000000000000000000000020000000000000001000000000000100000000000000000000000000000000000000000000000000000000000000000000000000000000000000000000000000018000000000000000000000010000000000000000000000000000000000000",
      "transactionHash": "0xf2c7d0d2b2c77036fb85aa71420d6ca164791483b26f23920021f5123660825f",
      "transactionIndex": "0x1",
      "blockHash": "0x226c36ed5a7b30142bc8a0379351f917ed524f68fa38176a3e5531a41c59d104",
      "blockNumber": "0x1c28b99",
      "gasUsed": "0x72b7",
      "effectiveGasPrice": "0x3b9aca07",
      "from": "0x0986bfd653985c9fa60a464784264444b542bfd7",
      "to": "0x00bc5cc3c2d4c85f2ea362adb7a4ea261162f90b",
      "contractAddress": null
    },
    {
      "type": "0x2",
      "status": "0x1",
      "cumulativeGasUsed": "0x1c3ae0",
      "logs": [
        {
          "address": "0x31107dbffd05918160e37e147a23e6b641319235",
          "topics": [
            "0x8c5be1e5ebec7d5bd14f71427d1e84f3dd0314c0f7b2291e5b200ac8c7c3b925",
            "0x0000000000000000000000000986bfd653985c9fa60a464784264444b542bfd7",
            "0x0000000000000000000000005b4a641fd1c2e67205d9d4947bcbd63eedddd5ab"
          ],
          "data": "0xffffffffffffffffffffffffffffffffffffffffffffffffffffffffffffffff",
          "blockHash": "0x5715968be5f19171901299a509a23503898b4bcc6449efa60e0d173cc94d0de7",
          "blockNumber": "0x1c28ba1",
          "blockTimestamp": "0x19ea198c24d",
          "transactionHash": "0x99cfcb51c4ca84e4212ba482354595a56bad05cd6d415e225c861e9ee7a90a55",
          "transactionIndex": "0x2",
          "logIndex": "0x9",
          "removed": false
        }
      ],
      "logsBloom": "0x00000000000000000000000000000000000000000000000000000000000200000000000000000000220000000000000000000000000000020000000000200000000400000000000000000000000000000000000000000000008000000000000000000000000000000000000000000000000000000000000000000000000000000000000000000000000000000000000020000000000000000000000000000000020000000000000000000000000000100000000000000000000000000000000000000000000000000000000000000000000000000000000000000000000000000010000000000000000000000010000000000000000000000000000000000000",
      "transactionHash": "0x99cfcb51c4ca84e4212ba482354595a56bad05cd6d415e225c861e9ee7a90a55",
      "transactionIndex": "0x2",
      "blockHash": "0x5715968be5f19171901299a509a23503898b4bcc6449efa60e0d173cc94d0de7",
      "blockNumber": "0x1c28ba1",
      "gasUsed": "0x72b7",
      "effectiveGasPrice": "0x3b9aca07",
      "from": "0x0986bfd653985c9fa60a464784264444b542bfd7",
      "to": "0x31107dbffd05918160e37e147a23e6b641319235",
      "contractAddress": null
    },
    {
      "type": "0x2",
      "status": "0x1",
      "cumulativeGasUsed": "0x59ea0",
      "logs": [
        {
          "address": "0x134594a2e3c2c3c550bd6981642b923b88ff6e9d",
          "topics": [
            "0x8c5be1e5ebec7d5bd14f71427d1e84f3dd0314c0f7b2291e5b200ac8c7c3b925",
            "0x0000000000000000000000000986bfd653985c9fa60a464784264444b542bfd7",
            "0x0000000000000000000000005b4a641fd1c2e67205d9d4947bcbd63eedddd5ab"
          ],
          "data": "0xffffffffffffffffffffffffffffffffffffffffffffffffffffffffffffffff",
          "blockHash": "0xc68fe5c68e9931fecf5d05056f88bdfb2a53669b80d3bc2bcd65a826d68d0de1",
          "blockNumber": "0x1c28ba9",
          "blockTimestamp": "0x19ea198c88f",
          "transactionHash": "0x13d006847ab0dde7b62deb830c7ef0e2f971d945bb99b11d21ea15530191b6a4",
          "transactionIndex": "0x5",
          "logIndex": "0x9",
          "removed": false
        }
      ],
      "logsBloom": "0x00000000000000000000000000000000000000000000000000000000000200000000000000000000000000000000000000000000000000020000000000200000000400000000000000000000000000000000000000000000000000000000000000000000000000200000000000000000000000000000000000000000000000000000000000000000000000000000000020000000000000000000000000000000020000000000000000000000000000100000000000000000000000000000000000000000000000000000000080000000000000000000000000000000000000000010000000000000000000000010000000000008000000000000000000000000",
      "transactionHash": "0x13d006847ab0dde7b62deb830c7ef0e2f971d945bb99b11d21ea15530191b6a4",
      "transactionIndex": "0x5",
      "blockHash": "0xc68fe5c68e9931fecf5d05056f88bdfb2a53669b80d3bc2bcd65a826d68d0de1",
      "blockNumber": "0x1c28ba9",
      "gasUsed": "0x72b7",
      "effectiveGasPrice": "0x3b9aca07",
      "from": "0x0986bfd653985c9fa60a464784264444b542bfd7",
      "to": "0x134594a2e3c2c3c550bd6981642b923b88ff6e9d",
      "contractAddress": null
    },
    {
      "type": "0x2",
      "status": "0x1",
      "cumulativeGasUsed": "0x16022",
      "logs": [
        {
          "address": "0xb046a6cde2990b9ddc7f13b311b5731da722ca2b",
          "topics": [
            "0xddf252ad1be2c89b69c2b068fc378daa952ba7f163c4a11628f55a4df523b3ef",
            "0x0000000000000000000000000986bfd653985c9fa60a464784264444b542bfd7",
            "0x0000000000000000000000005b4a641fd1c2e67205d9d4947bcbd63eedddd5ab"
          ],
          "data": "0x00000000000000000000000000000000000000000000152d02c7e14af6800000",
          "blockHash": "0x3c5e4b8a19ad8cdd265893d2d55696aee091f7d2051e7789cb9446961dfeb9ad",
          "blockNumber": "0x1c28bb2",
          "blockTimestamp": "0x19ea198cf7d",
          "transactionHash": "0xc3fb68778df11e3490e2f18c5cbbd166780fe7594582b3ff23b17cf32b4e895b",
          "transactionIndex": "0x0",
          "logIndex": "0x0",
          "removed": false
        },
        {
          "address": "0x093090b4eb9e82fb92fb4a80af0517b322799548",
          "topics": [
            "0xddf252ad1be2c89b69c2b068fc378daa952ba7f163c4a11628f55a4df523b3ef",
            "0x0000000000000000000000000986bfd653985c9fa60a464784264444b542bfd7",
            "0x0000000000000000000000005b4a641fd1c2e67205d9d4947bcbd63eedddd5ab"
          ],
          "data": "0x000000000000000000000000000000000000000000000002b5e3af16b1880000",
          "blockHash": "0x3c5e4b8a19ad8cdd265893d2d55696aee091f7d2051e7789cb9446961dfeb9ad",
          "blockNumber": "0x1c28bb2",
          "blockTimestamp": "0x19ea198cf7d",
          "transactionHash": "0xc3fb68778df11e3490e2f18c5cbbd166780fe7594582b3ff23b17cf32b4e895b",
          "transactionIndex": "0x0",
          "logIndex": "0x1",
          "removed": false
        },
        {
          "address": "0x5b4a641fd1c2e67205d9d4947bcbd63eedddd5ab",
          "topics": [
            "0x43c43d906088f43f5d42a7f5ee1a40dfd836456b84924e990ee90217a1947863",
            "0x0000000000000000000000000986bfd653985c9fa60a464784264444b542bfd7",
            "0x000000000000000000000000093090b4eb9e82fb92fb4a80af0517b322799548",
            "0x26a735c16219a3fbd3a8d7b31795984dcbe224b2cb5aba22862c79484548b0e1"
          ],
          "data": "0x00000000000000000000000000000000000000000000152d02c7e14af6800000000000000000000000000000000000000000000000000002b5e3af16b188000000000000000000000000000000000000000000000000007937ad4a57151f1d99",
          "blockHash": "0x3c5e4b8a19ad8cdd265893d2d55696aee091f7d2051e7789cb9446961dfeb9ad",
          "blockNumber": "0x1c28bb2",
          "blockTimestamp": "0x19ea198cf7d",
          "transactionHash": "0xc3fb68778df11e3490e2f18c5cbbd166780fe7594582b3ff23b17cf32b4e895b",
          "transactionIndex": "0x0",
          "logIndex": "0x2",
          "removed": false
        }
      ],
      "logsBloom": "0x00000000000000000000000000000000000000000001000000000000001200000000000000008000000000000000000000000000000000020000000040000000000400000000800000000008000000000000008000000004000000000000040000000000000000000000000000000000000000000000000000000010200008010000000000000000000000040000000020000000000000000000000000000000000000000000000000000000000000100000000000000000000000000008000000000002800000000000000000000000008000000000000000000000000000000000010000000004000000000010000000000000000000000001000000000000",
      "transactionHash": "0xc3fb68778df11e3490e2f18c5cbbd166780fe7594582b3ff23b17cf32b4e895b",
      "transactionIndex": "0x0",
      "blockHash": "0x3c5e4b8a19ad8cdd265893d2d55696aee091f7d2051e7789cb9446961dfeb9ad",
      "blockNumber": "0x1c28bb2",
      "gasUsed": "0x16022",
      "effectiveGasPrice": "0x3b9aca07",
      "from": "0x0986bfd653985c9fa60a464784264444b542bfd7",
      "to": "0x5b4a641fd1c2e67205d9d4947bcbd63eedddd5ab",
      "contractAddress": null
    },
    {
      "type": "0x2",
      "status": "0x1",
      "cumulativeGasUsed": "0x18ed8",
      "logs": [
        {
          "address": "0xb046a6cde2990b9ddc7f13b311b5731da722ca2b",
          "topics": [
            "0xddf252ad1be2c89b69c2b068fc378daa952ba7f163c4a11628f55a4df523b3ef",
            "0x0000000000000000000000000986bfd653985c9fa60a464784264444b542bfd7",
            "0x0000000000000000000000005b4a641fd1c2e67205d9d4947bcbd63eedddd5ab"
          ],
          "data": "0x00000000000000000000000000000000000000000000152d02c7e14af6800000",
          "blockHash": "0x28b21a649a901e7634cdbc03342559f465bbdfd741e25bce449530c311fc1558",
          "blockNumber": "0x1c28bbc",
          "blockTimestamp": "0x19ea198d740",
          "transactionHash": "0x7688c8b0d86eb981b0067ee9d6151a1b68fec0237555e273d77ce4ebad046732",
          "transactionIndex": "0x2",
          "logIndex": "0x6",
          "removed": false
        },
        {
          "address": "0x00bc5cc3c2d4c85f2ea362adb7a4ea261162f90b",
          "topics": [
            "0xddf252ad1be2c89b69c2b068fc378daa952ba7f163c4a11628f55a4df523b3ef",
            "0x0000000000000000000000000986bfd653985c9fa60a464784264444b542bfd7",
            "0x0000000000000000000000005b4a641fd1c2e67205d9d4947bcbd63eedddd5ab"
          ],
          "data": "0x000000000000000000000000000000000000000000000002b5e3af16b1880000",
          "blockHash": "0x28b21a649a901e7634cdbc03342559f465bbdfd741e25bce449530c311fc1558",
          "blockNumber": "0x1c28bbc",
          "blockTimestamp": "0x19ea198d740",
          "transactionHash": "0x7688c8b0d86eb981b0067ee9d6151a1b68fec0237555e273d77ce4ebad046732",
          "transactionIndex": "0x2",
          "logIndex": "0x7",
          "removed": false
        },
        {
          "address": "0x5b4a641fd1c2e67205d9d4947bcbd63eedddd5ab",
          "topics": [
            "0x43c43d906088f43f5d42a7f5ee1a40dfd836456b84924e990ee90217a1947863",
            "0x0000000000000000000000000986bfd653985c9fa60a464784264444b542bfd7",
            "0x00000000000000000000000000bc5cc3c2d4c85f2ea362adb7a4ea261162f90b",
            "0x425a16fade1c6b94f4893c2eeff862875ae041a41b1f48b05573a4c1116faf00"
          ],
          "data": "0x00000000000000000000000000000000000000000000152d02c7e14af6800000000000000000000000000000000000000000000000000002b5e3af16b188000000000000000000000000000000000000000000000000007937ad4a57151f1d99",
          "blockHash": "0x28b21a649a901e7634cdbc03342559f465bbdfd741e25bce449530c311fc1558",
          "blockNumber": "0x1c28bbc",
          "blockTimestamp": "0x19ea198d740",
          "transactionHash": "0x7688c8b0d86eb981b0067ee9d6151a1b68fec0237555e273d77ce4ebad046732",
          "transactionIndex": "0x2",
          "logIndex": "0x8",
          "removed": false
        }
      ],
      "logsBloom": "0x00000000000000000000080000000400000000000000000000000000001200000000000000008000000000000000000000000000000000020000000000000000000400040000000000000008000000000000000000000000000000000000000000000000000000000000000000000000000000000000000000000010200000010000000000000000000000040000000020000000000000000400000000000000000000000000000001000000000000100000000000040000000000000008000000000002800000000000000000000000000000000000000000000000000000000008000000000004000000400010000000000000100000000001000000000000",
      "transactionHash": "0x7688c8b0d86eb981b0067ee9d6151a1b68fec0237555e273d77ce4ebad046732",
      "transactionIndex": "0x2",
      "blockHash": "0x28b21a649a901e7634cdbc03342559f465bbdfd741e25bce449530c311fc1558",
      "blockNumber": "0x1c28bbc",
      "gasUsed": "0x16016",
      "effectiveGasPrice": "0x3b9aca07",
      "from": "0x0986bfd653985c9fa60a464784264444b542bfd7",
      "to": "0x5b4a641fd1c2e67205d9d4947bcbd63eedddd5ab",
      "contractAddress": null
    },
    {
      "type": "0x2",
      "status": "0x1",
      "cumulativeGasUsed": "0xa34ce",
      "logs": [
        {
          "address": "0xb046a6cde2990b9ddc7f13b311b5731da722ca2b",
          "topics": [
            "0xddf252ad1be2c89b69c2b068fc378daa952ba7f163c4a11628f55a4df523b3ef",
            "0x0000000000000000000000000986bfd653985c9fa60a464784264444b542bfd7",
            "0x0000000000000000000000005b4a641fd1c2e67205d9d4947bcbd63eedddd5ab"
          ],
          "data": "0x00000000000000000000000000000000000000000000152d02c7e14af6800000",
          "blockHash": "0x926cf5733ce544736cea84a9f29ca1c6ee777c2ee4ee6297424ee83a22f5b58d",
          "blockNumber": "0x1c28bc3",
          "blockTimestamp": "0x19ea198dd25",
          "transactionHash": "0xe5becec6e1d1bfc12133a67861e8eb4ed8ae9108b71295e991f57b34afeec440",
          "transactionIndex": "0x6",
          "logIndex": "0x18",
          "removed": false
        },
        {
          "address": "0x31107dbffd05918160e37e147a23e6b641319235",
          "topics": [
            "0xddf252ad1be2c89b69c2b068fc378daa952ba7f163c4a11628f55a4df523b3ef",
            "0x0000000000000000000000000986bfd653985c9fa60a464784264444b542bfd7",
            "0x0000000000000000000000005b4a641fd1c2e67205d9d4947bcbd63eedddd5ab"
          ],
          "data": "0x00000000000000000000000000000000000000000000000000000000000186a0",
          "blockHash": "0x926cf5733ce544736cea84a9f29ca1c6ee777c2ee4ee6297424ee83a22f5b58d",
          "blockNumber": "0x1c28bc3",
          "blockTimestamp": "0x19ea198dd25",
          "transactionHash": "0xe5becec6e1d1bfc12133a67861e8eb4ed8ae9108b71295e991f57b34afeec440",
          "transactionIndex": "0x6",
          "logIndex": "0x19",
          "removed": false
        },
        {
          "address": "0x5b4a641fd1c2e67205d9d4947bcbd63eedddd5ab",
          "topics": [
            "0x43c43d906088f43f5d42a7f5ee1a40dfd836456b84924e990ee90217a1947863",
            "0x0000000000000000000000000986bfd653985c9fa60a464784264444b542bfd7",
            "0x00000000000000000000000031107dbffd05918160e37e147a23e6b641319235",
            "0xb235f40f7c18cbaee47a3678c5b4c451be43fcbb6bc6700bf760406d3fb2d4ac"
          ],
          "data": "0x00000000000000000000000000000000000000000000152d02c7e14af680000000000000000000000000000000000000000000000000000000000000000186a000000000000000000000000000000000000000000000000000005af3107a4000",
          "blockHash": "0x926cf5733ce544736cea84a9f29ca1c6ee777c2ee4ee6297424ee83a22f5b58d",
          "blockNumber": "0x1c28bc3",
          "blockTimestamp": "0x19ea198dd25",
          "transactionHash": "0xe5becec6e1d1bfc12133a67861e8eb4ed8ae9108b71295e991f57b34afeec440",
          "transactionIndex": "0x6",
          "logIndex": "0x1a",
          "removed": false
        }
      ],
      "logsBloom": "0x80000000000000000000000000000000000000000000000000000000001200008000000000008000220000000000000000000000000000020000000000000000000400000000000000000008000000000000008000000000008000000000000000000000000000000000000000000000000000000000000000000010200000010000000000000000000000040000008020000000000004000000000000000000000000000000000000000000000000100000000000000000000000000008000000000002800000000000000000000000000000000000000000000000000000000000000000000004000000000010000000000000000000000001000000200000",
      "transactionHash": "0xe5becec6e1d1bfc12133a67861e8eb4ed8ae9108b71295e991f57b34afeec440",
      "transactionIndex": "0x6",
      "blockHash": "0x926cf5733ce544736cea84a9f29ca1c6ee777c2ee4ee6297424ee83a22f5b58d",
      "blockNumber": "0x1c28bc3",
      "gasUsed": "0x15ff2",
      "effectiveGasPrice": "0x3b9aca07",
      "from": "0x0986bfd653985c9fa60a464784264444b542bfd7",
      "to": "0x5b4a641fd1c2e67205d9d4947bcbd63eedddd5ab",
      "contractAddress": null
    },
    {
      "type": "0x2",
      "status": "0x1",
      "cumulativeGasUsed": "0x5acf5",
      "logs": [
        {
          "address": "0xb046a6cde2990b9ddc7f13b311b5731da722ca2b",
          "topics": [
            "0xddf252ad1be2c89b69c2b068fc378daa952ba7f163c4a11628f55a4df523b3ef",
            "0x0000000000000000000000000986bfd653985c9fa60a464784264444b542bfd7",
            "0x0000000000000000000000005b4a641fd1c2e67205d9d4947bcbd63eedddd5ab"
          ],
          "data": "0x00000000000000000000000000000000000000000000152d02c7e14af6800000",
          "blockHash": "0xf3af799adda629d95b99fb6d63b91bb3681ebba3c32bc6406c99f90d410a6327",
          "blockNumber": "0x1c28bcb",
          "blockTimestamp": "0x19ea198e3cd",
          "transactionHash": "0xbf776231d40987f508adacc0c7f178556189afd48299cb3c8de8814a8f6c9e28",
          "transactionIndex": "0x3",
          "logIndex": "0x5",
          "removed": false
        },
        {
          "address": "0x134594a2e3c2c3c550bd6981642b923b88ff6e9d",
          "topics": [
            "0xddf252ad1be2c89b69c2b068fc378daa952ba7f163c4a11628f55a4df523b3ef",
            "0x0000000000000000000000000986bfd653985c9fa60a464784264444b542bfd7",
            "0x0000000000000000000000005b4a641fd1c2e67205d9d4947bcbd63eedddd5ab"
          ],
          "data": "0x00000000000000000000000000000000000000000000000000000000000186a0",
          "blockHash": "0xf3af799adda629d95b99fb6d63b91bb3681ebba3c32bc6406c99f90d410a6327",
          "blockNumber": "0x1c28bcb",
          "blockTimestamp": "0x19ea198e3cd",
          "transactionHash": "0xbf776231d40987f508adacc0c7f178556189afd48299cb3c8de8814a8f6c9e28",
          "transactionIndex": "0x3",
          "logIndex": "0x6",
          "removed": false
        },
        {
          "address": "0x5b4a641fd1c2e67205d9d4947bcbd63eedddd5ab",
          "topics": [
            "0x43c43d906088f43f5d42a7f5ee1a40dfd836456b84924e990ee90217a1947863",
            "0x0000000000000000000000000986bfd653985c9fa60a464784264444b542bfd7",
            "0x000000000000000000000000134594a2e3c2c3c550bd6981642b923b88ff6e9d",
            "0xf4745153c438c24ad6a10c943fda074a849292cd4d5d630b96b2d3e6729d8e20"
          ],
          "data": "0x00000000000000000000000000000000000000000000152d02c7e14af680000000000000000000000000000000000000000000000000000000000000000186a000000000000000000000000000000000000000000000000000005af3107a4000",
          "blockHash": "0xf3af799adda629d95b99fb6d63b91bb3681ebba3c32bc6406c99f90d410a6327",
          "blockNumber": "0x1c28bcb",
          "blockTimestamp": "0x19ea198e3cd",
          "transactionHash": "0xbf776231d40987f508adacc0c7f178556189afd48299cb3c8de8814a8f6c9e28",
          "transactionIndex": "0x3",
          "logIndex": "0x7",
          "removed": false
        }
      ],
      "logsBloom": "0x00000000000000000000000000000000000000000000000000000000001200000000000000008000000000000000000000000000000000020000000000000000000400000000000000000008000000000000000000000000000000000000000000000008000000200000000000000000000000000000000000000018200000010000000000000000000000040000000020000000008001000000000000000000000000000000000004000000000000100000020000000000000000000008000000000002800000000000000080000000000000000000000000000000000000000000000000000004000000000010000000000008000000000001000000000000",
      "transactionHash": "0xbf776231d40987f508adacc0c7f178556189afd48299cb3c8de8814a8f6c9e28",
      "transactionIndex": "0x3",
      "blockHash": "0xf3af799adda629d95b99fb6d63b91bb3681ebba3c32bc6406c99f90d410a6327",
      "blockNumber": "0x1c28bcb",
      "gasUsed": "0x15ff2",
      "effectiveGasPrice": "0x3b9aca07",
      "from": "0x0986bfd653985c9fa60a464784264444b542bfd7",
      "to": "0x5b4a641fd1c2e67205d9d4947bcbd63eedddd5ab",
      "contractAddress": null
    },
    {
      "type": "0x2",
      "status": "0x1",
      "cumulativeGasUsed": "0x13ac9",
      "logs": [
        {
          "address": "0xb046a6cde2990b9ddc7f13b311b5731da722ca2b",
          "topics": [
            "0xddf252ad1be2c89b69c2b068fc378daa952ba7f163c4a11628f55a4df523b3ef",
            "0x0000000000000000000000000986bfd653985c9fa60a464784264444b542bfd7",
            "0x000000000000000000000000620ebbf0f0d7ace2202db95fd6ee0bb42f9510a6"
          ],
          "data": "0x0000000000000000000000000000000000000000000069e10de76676d0800000",
          "blockHash": "0x1bef8f2638b367535b935eed1075b97827c64911fd0e7a43aa8fd34a59d95a59",
          "blockNumber": "0x1c28bd4",
          "blockTimestamp": "0x19ea198eaa6",
          "transactionHash": "0x41b33befad3acd926886ed0b2969341583361d6e04fe9803e9200898b4ef8f97",
          "transactionIndex": "0x1",
          "logIndex": "0x1",
          "removed": false
        }
      ],
      "logsBloom": "0x00000000000000000000000000000000000000000000000000000000000000000000000000008000000000000000000000000000000000020000000000000000000000000000000000000008000000000000000000000000000000000000000000000000000000000000000000000000000000000000000008000010200000000000000000000000000000000000000020000000000000000000000000000000000000000000000000000000800000000000000000000000000000000008000000000002004000000000000000000000000000000000000000000000000000000000000000000000000000000010000000000000000000000000000000000000",
      "transactionHash": "0x41b33befad3acd926886ed0b2969341583361d6e04fe9803e9200898b4ef8f97",
      "transactionIndex": "0x1",
      "blockHash": "0x1bef8f2638b367535b935eed1075b97827c64911fd0e7a43aa8fd34a59d95a59",
      "blockNumber": "0x1c28bd4",
      "gasUsed": "0x86d9",
      "effectiveGasPrice": "0x3b9aca07",
      "from": "0x0986bfd653985c9fa60a464784264444b542bfd7",
      "to": "0xb046a6cde2990b9ddc7f13b311b5731da722ca2b",
      "contractAddress": null
    }
  ],
  "libraries": [],
  "pending": [],
  "returns": {},
  "timestamp": 1780827614298,
  "chain": 1979,
  "commit": null
}